:020000040800F2
:1000000010410020950300080103000803030008C5
:1000100005030008070300080903000800000000AA
:100020000000000000000000000000000B030008BA
:100030000F0300080000000011030008150300086A
:10004000AB030008AB030008AB030008AB030008D8
:10005000AB030008AB030008AB030008AB030008C8
:10006000AB030008AB030008AB030008AB030008B8
:10007000AB030008AB030008AB030008AB030008A8
:10008000AB030008AB030008AB030008AB03000898
:10009000AB030008AB030008AB0300086F0D0008BA
:1000A000AB030008AB030008AB030008AB03000878
:1000B000AB030008AB030008AB030008AB03000868
:1000C000AB030008AB030008AB030008AB03000858
:1000D000AB030008AB030008AB030008AB03000848
:1000E000AB030008AB030008AB03000800F002F804
:1000F00000F090F80AA090E8000C82448344AAF132
:100100000107DA4501D100F085F8AFF2090EBAE82F
:100110000F0013F0010F18BFFB1A43F0010318473B
:10012000F44C0000144D0000103A24BF78C878C188
:10013000FAD8520724BF30C830C144BF04680C60ED
:10014000704700000023002400250026103A28BF35
:1001500078C1FBD8520728BF30C148BF0B60704739
:100160006E2903F0E381702903F02583662904F0EA
:10017000CF85652904F0CC85672904F0C9856129FC
:1001800004F0C88503681B0A28BF41F08001692973
:1001900003F09081642903F08D81752903F08A8131
:1001A0006F2903F0B282782903F0F182E92903F084
:1001B0004D82E42903F04A82F52903F04782EF29B2
:1001C00003F0AF82F82903F0F0820368DB0928BF4F
:1001D00041F08001632904F02380732904F0288012
:1001E000E32904F03380F32904F0388000207047BD
:1001F0001FB504F089F804000020002104F072FD0E
:10020000401C60600020002104F056FDE0601FBD2E
:1002100010B510BD04F04AF81146FFF7E9FF00F0F1
:1002200055F804F023F903B4FFF7F2FF03BC04F020
:1002300067F90000224B19680868B0E8F00F80F3F6
:100240000988BFF36F8F4FF0000080F311884EF0E4
:100250000D0E70470000000006480068006880F33B
:10026000088862B661B6BFF34F8FBFF36F8F00DFB0
:1002700000BF00BF08ED00E0EFF30980BFF36F8F10
:100280000F4B1A6820E9F00F106008B54FF0BF005F
:1002900080F31188BFF34F8FBFF36F8F02F06CF9BB
:1002A0004FF0000080F31188BDE808401968086825
:1002B000B0E8F00F80F30988BFF36F8F704700BF7D
:1002C00030000020EFF30580704700001CB500F0FF
:1002D0003DF800210220CDE900010B46FF2204A1D8
:1002E000064801F04AFF02F01EFA00201CBD000083
:1002F0006D61696E5F7461736B0000005D0F0008D3
:100300007047FEE7FEE7FEE7FEE7FFF793BF7047A3
:10031000FFF7B2BF02F03BBF4FF4A06000F030BE69
:10032000144801684FF0E020026922F008020261DF
:1003300042F22832B1FBF2F14161016941F0020160
:100340000161016941F001010161704710B54FF48D
:10035000A06000F015FEFFF7E3FF4FF4E13000F07E
:100360003CFD00F033F8BDE8104003A1084800F060
:10037000DBBD00000000002053797374656D2049D7
:100380006E6974205375636573730D0A0000000075
:100390001400002008480047FEE7FEE7FEE7FEE7FE
:1003A000FEE7FEE7FEE7FEE7FEE7FEE70348044957
:1003B000044A054B70470000ED000008103B002088
:1003C00010410020103D0020103D002008B5012103
:1003D000082001F0C4F9C020ADF8000010208DF80D
:1003E000030003208DF802006946DA4800F0CFFFD1
:1003F00008BD04E03221401E491EC9B2FCD20028CB
:10040000F8D17047D34810B5016821F070610160E0
:10041000016841F040710160CF4B0120C3F89801A1
:10042000C3F89C01042003F5CC73FFF7E2FF00241E
:100430001C600420FFF7DDFF5C6010BDC54800B5FF
:10044000016821F070610160016841F04071016054
:10045000C14B0020C3F89C01C3F89801042003F5A8
:10046000CC73FFF7C6FF01205860186004205DF8C8
:1004700004EBBEE730B5B7480023016821F0706196
:100480000160016841F000610160B34C0125C4F8CE
:1004900098512846FFF7ADFFC4F89C5107E05B1C5C
:1004A000DBB2322B03D9FFF7C9FF012030BD012099
:1004B000FFF79FFFD4F818010028F0D1C4F89C0181
:1004C00030BD10B5A44B0024C3F89C41A14801687D
:1004D00021F070610160016841F040710160C3F872
:1004E0009841012003F5CC73FFF783FF012058608A
:1004F000FFF77FFF5C6010BD30B5974B0025C3F858
:100500009C519448016821F070610160016841F0DC
:10051000407101600124C3F89841204603F5CC7373
:10052000FFF767FF5C600120FFF763FF5D6030BD90
:10053000F0B504468748016821F0706101600168E8
:1005400041F040710160844D0026C5F89C6133463E
:100550000127E009C5F898016006040E0120FFF7A5
:1005600048FFC5F89C710120FFF743FFC5F89C6167
:100570000120FFF73EFF5B1CDBB2082BE9D3F0BD87
:10058000F0B5844673480024016821F07061016071
:10059000016841F0006101606F4D23462646012746
:1005A000C5F89C610120FFF724FFC5F89C71600627
:1005B000040ED5F8180108B1641CE4B20120FFF75D
:1005C00018FF5B1CDBB2082BEAD3BCF1000F02D092
:1005D000FFF777FF01E0FFF78FFF2046F0BD30B552
:1005E0000D460446FFF70EFF2046FFF7A1FFFFF779
:1005F00041FF2846FFF79CFFFFF73CFFFFF702FF94
:10060000641CE0B2FFF794FFFFF734FF0020FFF710
:10061000B7FF0446FFF712FF204630BDF0B51F4676
:1006200015468C4606460024FFF7ECFE3046FFF7E1
:100630007FFFFFF71FFF6046FFF77AFFFFF71AFF04
:10064000FFF7E0FE761CF0B2FFF772FFFFF712FF34
:100650006E1E09E0B44201D0012000E00020FFF747
:100660008FFF3855641CE4B2AC42F3D3FFF7E6FECB
:100670002046F0BDF0B51D4616468C4607460024C0
:10068000FFF7C0FE3846FFF753FFFFF7F3FE604663
:10069000FFF74EFFFFF7EEFE06E0285DFFF748FF8D
:1006A000FFF7E8FE641CE4B2B442F6D3FFF7C6FEDF
:1006B0000120F0BD10B51446FFF791FF2070012016
:1006C00010BD07B502AB0122FFF7D4FF0EBD2DE927
:1006D000F84114461E460D4680466A46079FFFF7BE
:1006E000E9FF00281BD0621CFF2000FA02F1C4F1D0
:1006F00008023244521ED0400143C6F10800874030
:10070000FAB2C4F10700C2409DF80000084010434F
:100710008DF80000C2B229464046FFF7D2FFBDE87F
:10072000F881F8B515461C460E4607466A46FFF79F
:10073000C1FF01209DF80010A8400CB1014300E06A
:100740008143CAB28DF8002031463846FFF7B9FF21
:10075000F8BD0000000C014000802142F948D0F8AB
:100760001401C0B2704708B50323009002226B2128
:10077000D220FFF7ACFF08BD012307226B21D22056
:10078000FFF7CFBF08B50223009004221B21D2201F
:10079000FFF79DFF08BD08B50223009004221C212D
:1007A000D220FFF794FF08BD034606226B21D2201A
:1007B000FFF7B7BF10B5E44B01227521D220FFF738
:1007C0002DFFE148007810BD10B5FFF7F3FF682852
:1007D00001D0002010BD012010BD034605226A2172
:1007E000D220FFF79EBF034601223721D220FFF718
:1007F00098BF10B5FFF7E8FF08B1D4A100E0DAA177
:10080000BDE81040DE4800F08FBB10B580226B21A0
:10081000D220FFF756FF322001F025FE00221921D9
:10082000D220FFF74EFF03226B21D220FFF749FFB2
:1008300002223721D220FFF744FF03221A21D220BF
:10084000FFF73FFF0320FFF79DFF10221C21BDE8AB
:100850001040D220FFF735BF1CB504466B46062278
:100860003B21D220FFF7DAFEBDF8000040BA20801D
:10087000BDF8020040BA6080BDF8040040BAA08014
:100880001CBD1CB504466B4606224321D220FFF74F
:10089000C5FEBDF8000040BA2080BDF8020040BA95
:1008A0006080BDF8040040BAA0801CBDF8B50024EB
:1008B0000546062635F814006B46000A8DF8000040
:1008C00015F814008DF8010006EB4400C1B20222B5
:1008D000D220FFF7CFFE641CE4B2032CEAD3F8BDAC
:1008E000F8B500240546132635F814006B46000AB7
:1008F0008DF8000015F814008DF8010006EB440097
:10090000C1B20222D220FFF7B5FE641CE4B2032C70
:10091000EAD3F8BD130000F01F0201D042F020021C
:1009200009B142F040026D21D220FFF7CABE024653
:100930006E21D220FFF7C5BE10B5834B01226F2177
:10094000D220FFF76BFE8048007810BD10B57E4BBB
:1009500002221321D220FFF761FE7B48008840BAB3
:1009600000B210BD10B5784B02221521D220FFF73E
:1009700055FE7548008840BA00B210BD10B5724BE4
:1009800002221721D220FFF749FE6F48008840BAA3
:1009900000B210BD2DE9F05F91460F46824600225D
:1009A0001E4611464846DDF828B0FFF7B3FF304633
:1009B000FFF7BDFF002449E0102504F11000B84204
:1009C00001D9381BC5B2C6F58070A84200D2C5B2A5
:1009D0000AEB0400804603462A466F21D220FFF727
:1009E00049FEBBF1000F1ED0002211464846FFF71A
:1009F00091FF3046FFF79BFF534B2A460E336F2182
:100A0000D220FFF70BFE504A00200E3209E018F802
:100A10000010135C994202D00020BDE8F09F401CFA
:100A2000C0B2A842F3D3601984B27019C6B2BC42F6
:100A30000CD21EB909F1010000F0FF090022114695
:100A40004846FFF767FF3046FFF771FFBC42B3D35C
:100A50000120E2E72DE9FC410E460546002423E093
:100A60002A5D641CA0B22B5C401C80B22F5C401C31
:100A700084B267B14FF0000C0121CDE9001C2819A8
:100A80003946FFF787FFE1198CB268B904E0285DA9
:100A9000641CA4B2012802D00020BDE8FC813222EF
:100AA0003821D220FFF70DFEB442D9D30120F4E75C
:100AB0007CB50025069CCDE90045FFF76BFF7CBDAA
:100AC0000022C7E702463821D220FFF7FABD0246CE
:100AD0001921D220FFF7F5BD08B5032300900222AB
:100AE0001A21D220FFF7F3FD08BD08B503230090BB
:100AF00005221A21D220FFF7EAFD08BD0246702127
:100B0000D220FFF7DEBD02467121D220FFF7D9BD0A
:100B1000002203461146D220FFF703BE0A49020A0B
:100B20000B460A70487002221321D220FFF7A2BDA3
:100B30000549020A0B460A70487002221521D2208C
:100B4000FFF798BD008021429C0000204D50553693
:100B500030353020636865636B207375636365733C
:100B6000732E2E2E0D0A00004D5055363035302094
:100B70006E6F7420666F756E642E2E2E0D0A000047
:100B8000140000206949020A0B460A7048700222CC
:100B90001721D220FFF76EBD012302226A21D22045
:100BA000FFF7BFBD10B5614B02227221D220FFF7C3
:100BB00035FD5E48008840BA10BD02461F21D22094
:100BC000FFF77FBD02462121D220FFF77ABD024602
:100BD0002021D220FFF775BD02462221D220FFF747
:100BE00070BD2DE9F04790460F46814600221E4613
:100BF00011464046FFF78EFE3046FFF798FE002470
:100C000025E0102504F11000B84201D9381BC5B207
:100C1000C6F58070A84200D2C5B209EB04032A468B
:100C20006F21D220FFF726FD601984B27019C6B279
:100C3000BC420CD21EB908F1010000F0FF080022EE
:100C400011464046FFF766FE3046FFF770FEBC4295
:100C5000D7D3BDE8F0870A4603467421D220FFF7B8
:100C6000DDBC3A21D220FFF7BABC034607226A2135
:100C7000D220FFF756BD10B50021D220FFF7AFFC00
:100C800000F0010010BD10B50021D220FFF7A7FC35
:100C900000F03F0010BD08B5C0B2062300901A4610
:100CA0000021D220FFF713FD08BD10B50121D2208D
:100CB000FFF795FC00F03F0010BD08B5C0B2062359
:100CC00000901A460121D220FFF701FD08BD10B5A2
:100CD0000221D220FFF783FC00F03F0010BD08B5D1
:100CE000C0B2062300901A460221D220FFF7EFFC83
:100CF00008BD0A46032806D800EB40002530C1B2E3
:100D0000D220FFF7DEBC704701236A211A46D220A9
:100D1000FFF707BD034606226A21D220FFF701BD77
:100D2000012303226A21D220FFF7FBBC9C00002094
:100D300008B517208DF8000001208DF80100002172
:100D40008DF802108DF80300684600F01EF908BD0A
:100D500008B52020ADF8000002208DF802004820E0
:100D60008DF803006946084800F011FB08BD10B576
:100D7000202000F09FFA002804D0BDE81040202079
:100D800000F0A6BA10BD0000000C014010B58CB0F8
:100D90000121032000F0DAFC6C4C204600F048F9F9
:100DA0006B4800906B48019000211020CDE90201B2
:100DB0008020CDE904104001CDE90810069107918B
:100DC0000A916946204600F0A0F96148012280217D
:100DD000001F00F0D8FD0CB010BDF0B5064687B07E
:100DE000012144F2040000F0BAFC594D2D1F2846A1
:100DF00000F004FD6815ADF8100018208DF8130000
:100E0000554F03248DF8124004A9384600F0BFFA6C
:100E10002815ADF8100004208DF813008DF812404D
:100E200004A9384600F0B3FA25208DF814000520F7
:100E30008DF8150000248DF8164001208DF817005C
:100E400005A800F0A2F8284600F0D8FCADF808404C
:100E50000C20ADF80440ADF80A000096ADF806404D
:100E6000ADF80C40012240F22551284600F073FDF8
:100E70006946284600F0F2FC0121284600F061FD99
:100E8000FFF784FF07B0F0BD70B50C460546402162
:100E900000F015FE2146284600F0A9FD4021284615
:100EA00000F006FE0028F9D070BD2DE9F04115468E
:100EB0000E460746002404E0315D3846FFF7E4FFA4
:100EC000641CAC42F8D3BDE8F0812DE9F041054641
:100ED00016468846406800F057F904463044B0F59D
:100EE000807F01D90020EEE70021686800F037F923
:100EF000184F44B12888A04205D9001BC1192246C9
:100F0000384602F02DFA38193246414602F028FAE6
:100F1000301981B22980686800F034F901216868CD
:100F200000F01DF90120CEE70FB410B5A0B00446C3
:100F300024AA6846239902F001FA0246694620462F
:100F4000FFF7C3FF20B010BC5DF814FB4400024063
:100F500004380140BA00002000080140FFF749FCB6
:100F6000FFF753FC03A10548FFF7DEFF642001F003
:100F70007AFAF7E77469636B0D0A00001400002029
:100F80002849084328490860704730B50F23C278C4
:100F900001780125F2B1244A126801F1E02102F43E
:100FA000E062C2F5E062120AC2F10404D340427862
:100FB000A24084781C401443220181F80024007868
:100FC00000F01F018D404009800000F1E020C0F8D2
:100FD000005130BD01F01F0085404809800000F13C
:100FE000E020C0F8805130BD104A114001430E4846
:100FF000001F016070470C4A121D0029116801D0C2
:10100000014300E08143116070474FF0E021042864
:10101000086903D020F004000861704740F0040024
:10102000FAE700000000FA050CED00E080FFFF1F6A
:1010300001684FF6FE7211400160002101604160BD
:101040008160C1606A496A4A0839904203D14868A0
:1010500040F00F0006E0664A1432904204D148681E
:1010600040F0F00048607047614A2832904203D156
:10107000486840F47060F5E75D4A3C32904203D125
:10108000486840F47040EDE7594A5032904203D12D
:10109000486840F47020E5E7554A6432904203D135
:1010A000486840F47000DDE7514A7832904203D13D
:1010B000486840F07060D5E74E4A111F904203D156
:1010C000086840F00F0006E04A4A1432904204D10A
:1010D000086840F0F00008607047464A28329042A5
:1010E00003D1086840F47060F5E7424A3C32904210
:1010F00003D1086840F47040EDE73E4A5032904218
:10110000EAD1086840F47020E5E730B5026847F698
:10111000F0739A430C6A8B682343D1E904452C434E
:1011200023438C692343CC6923434C6A23438C6A51
:10113000234313430360CA6842600A6882604968B7
:10114000C16030BD0021016041608160C16001610A
:1011500041618161C1610162416281627047002920
:10116000016802D041F0010102E04FF6FE72114029
:1011700001607047002A026801D00A4300E08A43F8
:101180000260704741607047406880B27047024615
:101190000020D10002D51749083901E01449083967
:1011A0000968114200D001207047C10003D51149E0
:1011B000091F086070470E490839486070470246A9
:1011C0000020D10002D50B49083901E0084908394F
:1011D0000968114200D001207047C10003D50549BC
:1011E000091F0860704702490839486070470000CD
:1011F0000800024008040240374900200860091D29
:101200000860091D0860091D08603349334814311E
:101210000860704730B5304A8379016853B313686A
:101220008B431360111D0B680468A3430B600179A5
:1012300011440B68046823430B60274B083319687B
:101240000468A14319601C1D21680568A943216039
:101250004179102905D011440A68006802430A60E8
:1012600030BD1968026811431960216800680143A4
:10127000216030BD0079104402688A43026030BDAD
:101280000021016001710C22427181717047124985
:1012900010310A6802430A60704701460E4A002076
:1012A000143212680A4200D0012070470A491431F2
:1012B00008607047084A014600201268064B0A4041
:1012C00014331B680B4202D0002A00D00120704763
:1012D000014914310860704700040140FFFF0F000E
:1012E0008F4910B5884206D10121042000F049FA47
:1012F000002104203BE08B49884206D101210820CF
:1013000000F03FFA0021082031E08749884206D1E9
:101310000121102000F035FA0021102027E0834938
:10132000884206D10121202000F02BFA0021202044
:101330001DE07F49884206D10121402000F021FABA
:101340000021402013E07B49884206D10121802002
:1013500000F017FA0021802009E0774988420AD17D
:1013600084150121204600F00CFA00212046BDE83A
:10137000104000F006BA10BD10B50121084600F07B
:1013800000FA0021BDE81040012000F0FAB9F0B5E4
:10139000CC78002204F00F03E40601D58C782343B7
:1013A0000C784FF00F0C14F0FF0F4FF0010E1BD014
:1013B00005680E880EFA02F42640A64210D1960067
:1013C0000CFA06F725EA070703FA06F5CE783D433F
:1013D000282E02D0482E02D002E0446100E00461D1
:1013E000521C082AE5D305600A88FF2A1CD94468E4
:1013F000002202F108060EFA06F50E882E40AE42D3
:101400000ED196000CFA06F7BC4303FA06F7CE7825
:101410003C43282E00D14561CE78482E00D105618D
:10142000521C082AE5D34460F0BD4FF6FF710180DD
:10143000022181700421C170704702460020926829
:101440000A4200D001207047806880B2704702468F
:101450000020D2680A4200D001207047C06880B2E4
:10146000704701617047416170470AB1016170477F
:1014700041617047C160704741F48032826181618F
:1014800082618169806970472C4B10B51A684FF6EC
:101490008074224042EA00100843186010BD2849B9
:1014A000C8617047F0B5254C002801DAE36900E017
:1014B0006368450D2E0185B2C0F30157B540C0F3F6
:1014C0000342032F05D0C6020AD503269640B34334
:1014D00007E023F07062636823F07063636002E0EA
:1014E000AB4343F0706201B12A43002801DAE261A4
:1014F000F0BD6260F0BD10B58A0721F003040F490A
:10150000120F21440F238C6893409C438C608B689E
:10151000904003438B6010BD0949C1F8DC0070475F
:1015200000080140000C014000100140001401407F
:1015300000180140001C0140002001400000014053
:1015400000002042A548016841F0010101604168A6
:10155000A34A114041600168A24A1140016001683C
:1015600021F480210160416821F4FE0141604FF4C3
:101570001F018160704799490A6822F480320A602D
:101580000A6822F480220A60B0F5803F07D0B0F5E7
:10159000802F03D1086840F4A020086070470868D5
:1015A00040F48030F9E70346002059098B4A0129AD
:1015B0000AD002290AD0516A03F01F020123934086
:1015C0000B4200D0012070471168F5E7116AF3E77C
:1015D00018B500204FF4A06400903120FFF7E3FF1E
:1015E0000099491C0091A14201D00028F5D031207A
:1015F000FFF7D9FF002800D0012018BD774A1168F5
:1016000021F0F80141EAC000106070477649086097
:101610007047724B5A68084322F47C12104358609A
:1016200070477149086670476C4A516821F00301A0
:101630000143516070476948406800F00C007047F2
:10164000664A516821F0F001014351607047634AD6
:10165000516821F4E0610143516070475F4A51686D
:1016600021F4605141EAC000506070475B4A002994
:10167000517A01D0014300E08143517270475A49C9
:10168000C1F8D8007047554A516821F440410143E0
:10169000516070475149002281F8202081F82020B4
:1016A000012802D0042802D1052081F820007047CB
:1016B0004E490860704749490A6A02430A62704706
:1016C0004A4944390860704730B5444A5168484B2C
:1016D00011F00C0103D0042901D0082901D00360C6
:1016E00012E05168536801F470114FF0020413F4D2
:1016F000803F04EB914102D053689B0301D53D4BE1
:1017000000E03B4B5943016051680F2303EA11117C
:10171000394B5C5C0168E14041605468072505EA8B
:1017200014241C5D21FA04F48460546805EAD4246E
:101730001B5DD940C1605268032303EA92322E4BED
:101740001B1F9A5CB1FBF2F1016130BD234A0029F5
:10175000516901D0014300E08143516170471F4A44
:101760000029916901D0014300E0814391617047F4
:101770001A4A0029D16901D0014300E08143D161B7
:101780007047164A0029D16801D0014300E0814327
:10179000D1607047114A0029116901D0014300E06E
:1017A00081431161704711494039086070470E4903
:1017B000C86470470949C87170470848416A41F0D8
:1017C000807141627047054A0146002092680A42D2
:1017D00000D0012070470149887270470010024014
:1017E0000000FFF8FFFFF6FE000042428004424284
:1017F00000127A0000093D0020000020C44910B505
:1018000088420AD101218C032046FFF7BAFF204607
:10181000BDE810400021FFF7B4BFBE49884202D1A5
:1018200001214C0410E0BC49884202D101218C0402
:101830000AE0BA49884202D10121CC0404E0B84947
:1018400088420AD101210C052046FFF7A3FF20465C
:10185000BDE810400021FFF79DBF10BD30B5044624
:10186000008A85B00D464CF6FF710840E9880143B7
:101870002182A0894EF6F3110840A9882A891143D4
:101880006A8902431143A181A08A4FF6FF410840B3
:10189000A9890143A1826846FFF716FF9C4884424C
:1018A00001D1039800E00298A189090400EBC0016E
:1018B00001EB0010296801D5490000E08900B0FB68
:1018C000F1F06422B0FBF2F109010B096FF0180589
:1018D0006B4300EB8300A3891D044FF0320306D550
:1018E00003EBC000B0FBF2F000F0070005E003EBF3
:1018F0000010B0FBF2F000F00F000843208105B0AB
:1019000030BD4FF41651016000218180C1800181FA
:101910000C2242818181704710B5028A4FF2FF0389
:101920001A400B884C8823438C88C9880C43234376
:101930001343038210BD0021018041808180C1805A
:1019400070470029818902D041F4005101E021F45F
:1019500000518181704710B5C1F3421301F01F049B
:101960000121A140012B07D0022B07D01430002AFF
:10197000026805D00A4304E00C30F8E71030F6E7BF
:101980008A43026010BD002A828A01D00A4300E027
:101990008A4382827047028A22F00F020282028A00
:1019A0000A4302827047828922F40062828182891E
:1019B0000A43828170470029818902D041F00201E7
:1019C00001E021F0020181817047028A22F02002A9
:1019D0000282028A0A43028270470029018A02D0E9
:1019E00041F4804101E021F4804101827047C1F35C
:1019F0000801818070478088C0F3080070478189A2
:101A000041F0010181817047028BD2B20283028BC7
:101A100042EA012101837047028B02F47F42028374
:101A2000028B0A43028370470029818A02D041F069
:101A3000200101E021F02001818270470029818A84
:101A400002D041F0100101E021F0100181827047C5
:101A50000029818A02D041F0080101E021F008014B
:101A6000818270470029818902D041F4004101E060
:101A7000C1F30E01818170470029818A02D041F4AF
:101A8000006101E021F4006181827047828A22F0C6
:101A900004028282828A0A43828270470029818AF4
:101AA00002D041F0020101E021F002018182704781
:101AB0000246002012880A4200D001207047C94324
:101AC0000180704770B501F01F0501260024C1F3A5
:101AD000421306FA05F2012B0FD0022B0FD0838A96
:101AE0004FEA11210088134206FA01F600EA0600C7
:101AF00001D000B10124204670BD8389F0E7038A3C
:101B0000EEE70A0A01219140C943018070470000B5
:101B1000003801400044004000480040004C0040B4
:101B20000050004070B50D46044601F01CFBD4E99E
:101B30000F12206801FB020060600020A063206893
:101B4000A0600146E06B401E00FB0210E0604FF019
:101B5000FF3084F8440084F8450004F110004DB1D2
:101B600001F08AFA04F1240001F086FA01F007FB83
:101B7000012070BD21690029F8D000F045FE002841
:101B8000F4D0FB494FF080500860BFF34F8FBFF394
:101B90006F8FEBE770B50D00064612D006FB05F01F
:101BA000483001F035FB040009D004F1480120461B
:101BB0004DB10160C0E90F650121FFF7B3FF204679
:101BC00070BD0020ECE70060F4E710B50C4602227F
:101BD0000021FFF7DFFF002800D0846310BD2DE94E
:101BE000F041044601F0BFFA94F9455004F124068F
:101BF00009E0606A48B1304600F006FE08B100F026
:101C000086FE6D1E6DB2002DF3DC4FF0FF3684F8BA
:101C1000456001F0B4FA01F0A6FA94F9445004F1D9
:101C2000100709E0206948B1384600F0EDFD08B121
:101C300000F06DFE6D1E6DB2002DF3DC84F8446083
:101C4000BDE8F04101F09BBA2DE9F041856B1646E5
:101C500004460027026CFAB17EB1E06801F080FB17
:101C6000E168206C091AE1602268914202D2616841
:101C7000081AE060022E0DD00EE0A06801F070FBA3
:101C8000216CA0680844A0606168884204D3206881
:101C9000A06001E005B16D1E6D1CA5633846BDE86E
:101CA000F0812DE9FF4F002683B09A468B4604460B
:101CB000B1464FF08057DFF8B88201F054FAA06BBC
:101CC000E16B884206D3BAF1020F03D00598C8B180
:101CD000DEB11EE0524659462046FFF7B5FF616A65
:101CE00019B104F1240000F08FFD28B1C8F800708C
:101CF000BFF34F8FBFF36F8F01F041FA012007B0A0
:101D0000BDE8F08F01F03BFA21E0684600F0D8FD15
:101D1000012601F034FA00F07AFB01F024FA94F97C
:101D20004400401C01D184F8449094F94500401CC3
:101D300001D184F8459001F022FA05A9684600F027
:101D4000C5FD30B12046FFF74AFF00F0DAFA002067
:101D5000D5E701F008FAA06BE16B884201D10125BB
:101D600000E0002501F00BFA95B104F1100005998F
:101D700000F018FD2046FFF732FF00F0C2FA0028FD
:101D80009BD1C8F80070BFF34F8FBFF36F8F94E7FC
:101D90002046FFF724FF00F0B4FA8EE72DE9F0416A
:101DA00004461746BF20EFF3118680F31188BFF376
:101DB0004F8FBFF36F8FA06BE26B904205D3022B66
:101DC00003D0002086F3118869E794F945501A463C
:101DD0002046FFF739FF681C04D06D1C84F845507D
:101DE0000120EFE7606A0028FAD004F1240000F037
:101DF0000BFD0028F4D0002FF2D001203860EFE76F
:101E000070B50D46BF21EFF3118481F31188BFF344
:101E10004F8FBFF36F8F816BC26B8A4217D990F9D6
:101E20004520491C8163511C04D0521C80F8452078
:101E300001200DE0416A0029FAD0243000F0E4FCD2
:101E40000028F5D0002DF3D001202860F0E7002015
:101E500084F3118870BD30B4026C0B46002A0BD09D
:101E6000C1681144C1604468A14201D30168C160E6
:101E700030BC184601F074BA30BC70472DE9FF4FF2
:101E8000002683B09A468B460446B1464FF08057F1
:101E9000DFF8DC8001F067F9A56B0DB359462046E9
:101EA000E668FFF7D8FFBAF1000F11D0E660606A6C
:101EB00050B104F1240000F0A7FC28B1C8F800706C
:101EC000BFF34F8FBFF36F8F01F059F9012016E771
:101ED0006D1EA56320690028F6D004F11000EAE722
:101EE000059808B11EB106E001F049F927E06846FF
:101EF00000F0E6FC012601F042F900F088FA01F05A
:101F000032F994F94400401C01D184F8449094F9CA
:101F10004500401C01D184F8459001F030F905A935
:101F2000684600F0D3FC002820460AD0FFF757FE91
:101F300000F0E7F9204600F0B1F80028AAD0002010
:101F4000DDE600F0ABF8A8B104F12400059900F03B
:101F500029FC2046FFF743FE00F0D3F9002899D171
:101F6000C8F80070BFF34F8FBFF36F8F92E7000088
:101F700004ED00E02046FFF732FE00F0C2F989E7E9
:101F80002DE9F04104469046BF20EFF3118780F31E
:101F90001188BFF34F8FBFF36F8FA66BEEB194F92B
:101FA00044502046FFF757FF761EA663681C04D0F6
:101FB0006D1C84F84450012010E020690028FAD0FC
:101FC00004F1100000F020FC0028F4D0B8F1000F5C
:101FD000F1D00121C8F80010EDE7002087F3118847
:101FE0005DE670B50446BF20EFF3118580F31188DC
:101FF000BFF34F8FBFF36F8FA06B28B12046E66809
:10200000FFF729FF0120E66085F3118870BD10B548
:10201000044601F0A8F8A46B01F0B1F8204610BD09
:1020200010B5044601F09FF8D4E90E10441A01F0EF
:10203000A6F8204610BD806B704701F033B9806B65
:1020400008B10020704701207047816BC06B81424E
:1020500001D1012070470020704770B515460E462B
:10206000044601F080F894F944100020491C01D185
:1020700084F8440094F94510491C01D184F84500C6
:1020800001F07DF8A06B28B92A46314604F12400FE
:1020900000F0A8FB2046BDE87040A0E510B504465E
:1020A00001F061F8A06B20B1002401F068F820462F
:1020B00010BD0124F9E700002DE9F041054601F0CB
:1020C00052F8FA4EB068401CB0603068F84F10B15A
:1020D000706940B32DE03560B068012829D1002433
:1020E00004EB840007EB800000F0C6FF641C052CA5
:1020F000F6D3EF48643000F0BFFFED48783000F0D1
:10210000BBFFEB488C3000F0B7FFE948A03000F08F
:10211000B3FFE748B43000F0AFFFE54864307063C8
:102120001430B06305E03068E96AC06A884200D8BC
:102130003560706A0121401C7062E86A3269814032
:102140001143316100EB800007EB8000291D00F096
:10215000A1FF01F014F8706900280CD03068E96A1A
:10216000C06A884207D2D3494FF080500860BFF35D
:102170004F8FBFF36F8FBDE8F0812DE9FF5F83467E
:10218000DDE90E87994616468A46900001F040F830
:1021900005001AD04C2001F03BF8040012D0256352
:1021A0000021CDE90241CDE900874B463246514638
:1021B000584600F02FFD2046FFF77EFF012004B0B7
:1021C000BDE8F09F284601F06DF84FF0FF30F6E7CC
:1021D00070B5044600F0C7FFB44D04B92C68201D4B
:1021E00000F07CFF58B9E06AB14A00EB800152F878
:1021F000211021B901218140286988432861A06A02
:1022000018B104F1180000F069FF686A401C6862A8
:102210002868844208D1A648211DA03000F03AFF6A
:102220006868401C686007E0A868401EA8602046F7
:1022300000F03FFD00F029FD00F0A1FF68690028D3
:102240000AD02868844207D19A494FF0805008602C
:10225000BFF34F8FBFF36F8F70BD2DE9F041934FE8
:102260000026386B38B1B869401CB861F86900B114
:10227000012630467FE7FD686D1CFD6008D1786B54
:10228000B96B7963B863386A401C386200F0FDFCB2
:10229000B86ADFF81C82854209D3786B006880B188
:1022A000786BC068C468606885420DD2B8623868CF
:1022B000C06A00EB800158F821000128D6D9012618
:1022C000D4E74FF0FF30F1E7201D00F007FFA06AD0
:1022D00018B104F1180000F001FFE06A01213A6929
:1022E00081401143396100EB800108EB8100211D21
:1022F00000F0D0FEE06A3968C96A8842CDD3012671
:10230000CBE72DE9F0470024274600F02CFF674D6E
:10231000286B401E2863286BF0BBA86864498C3189
:102320000126C8B3DFF888918846D8F80010E9B1D3
:10233000D8F80C00C46804F1180000F0CFFE201D8E
:1023400000F0CCFEE06A2A6906FA00F11143296127
:1023500000EB800109EB8100211D00F09BFEE06A8B
:102360002968C96A8842E0D3EE61DEE70CB100F06B
:102370008CFCAC693CB1FFF770FF00B1EE61641EEC
:10238000F9D10020A861E86930B14A49012738072E
:102390000860BFF34F8F00E001E0BFF36F8F00F0E4
:1023A000EEFE3846BDE8F0872DE9F0413F4E0F467E
:1023B0000446F5683068001D00F090FE38B93068BA
:1023C00090F82C1001208840316981433161601CF4
:1023D00008D13FB13168BDE8F0413548B430091D3E
:1023E00000F058BE30682C44AC424460316805D2DD
:1023F000B06BBDE8F041091D00F058BE706B091DBF
:1024000000F054FEB06A844200D2B462B3E62748BA
:10241000016B491C0163704770B50E4605460023E9
:10242000FFF7F5FF2148C2682C68A119944202D930
:102430008C4202D804E08C4201D8914200D9012399
:1024400029601BB1881A0021FFF7AEFFFFF759FF83
:10245000002807D117494FF080500860BFF34F8F15
:10246000BFF36F8F70BD10B5020009D0FFF7CFFF2B
:1024700000211046FFF798FFFFF743FF002807D120
:102480000C494FF080500860BFF34F8FBFF36F8F40
:1024900010BD10B5044600F066FE0CB90348046890
:1024A000E46A00F06CFE204610BD00003000002001
:1024B000BC01002004ED00E0BF22EFF3118182F3A4
:1024C0001188BFF34F8FBFF36F8F08B9F6480068CC
:1024D000C06A81F3118870472DE9F04100260D464E
:1024E0000446052900D3042500F03DFEEE4F04B953
:1024F0003C68E06AA8423BD03968854206D98C42E4
:1025000007D03968C96AA94202D902E08C4200D1D9
:1025100001268046E562A069002802DBC5F10500BE
:10252000A061E24D08EB8800616905EB8000814203
:1025300015D1201D00F0D2FD012120B93A6901FA20
:1025400008F082433A61E06A3A6981401143396197
:1025500000EB800005EB8000211D00F09BFD3EB1EB
:10256000D3494FF080500860BFF34F8FBFF36F8F98
:10257000BDE8F04100F003BECB4A106B10B1012062
:10258000D06170470020D0611069C849B0FA80F06E
:10259000C0F11F0000EB800001EB800000F1080398
:1025A000416849684160994201D149684160C86801
:1025B0001060704770B5044600F0D5FDBA4D04B9FF
:1025C0002C68201D00F08AFD58B9E06AB74900EB7D
:1025D000800251F8221021B90121814028698843E5
:1025E0002861A06A18B104F1180000F077FDAF4827
:1025F000211DB43000F04EFD00F0C1FD686928B126
:1026000000F0B1FD00F041FB00F0B9FD2868844204
:1026100009D1686940B1A6494FF080500860BFF306
:102620004F8FBFF36F8F70BDA048A968B4300068AA
:10263000884202D10020286070BDBDE870409BE751
:1026400070B504002BD0984D2868844227D000F044
:102650008AFD204600F037FBE8B1201D00F03EFD6A
:10266000E06A01212A698140114329618F4900EB09
:10267000800001EB8000211D00F00CFDE06A29685C
:10268000C96A884207D38A494FF080500860BFF377
:102690004F8FBFF36F8FBDE8704000F070BD70BD0D
:1026A0002DE9F04104460026BF20EFF3118580F3A9
:1026B0001188BFF34F8FBFF36F8F204600F003FBED
:1026C000F0B1794F386B20B1784804F118018C30A3
:1026D00014E0E06A3968C96A884200D30126201DE7
:1026E00000F0FCFCE06A01213A6981401143396144
:1026F0006E4900EB800001EB8000211D00F0CAFC58
:1027000085F31188304636E5684E4FF08054684DA9
:1027100000F0E7FA30680128FAD92C60BFF34F8F38
:10272000BFF36F8FF4E71CB55F4800242C30CDE970
:102730000040234680225FA16048FFF71EFD01286C
:1027400015D100F061FB012811D1BF2080F3118861
:10275000BFF34F8FBFF36F8F53484FF0FF3181624C
:1027600001214161C460BDE81C4000F0E8BC1CBD13
:10277000BF2080F31188BFF34F8FBFF36F8F4A499B
:102780000020486100F0EEBC4748C06870474648EA
:10279000C068704744488068704708B9424800687C
:1027A00034307047024610B53F480C460168104669
:1027B000183100F07BFC2046BDE810400121F3E514
:1027C000034641F0004010B5374914460A6890614D
:1027D00009681846183100F05DFC2046BDE810403D
:1027E0000121E1E570B5154602462F480C46016807
:1027F0001046183100F04EFC0DB14FF0FF34294661
:102800002046BDE87040CFE52DE9F041C068C468BE
:1028100004F11800074600F061FC234D286B0126E7
:1028200060B1224839468C3000F034FCE06A2968F7
:10283000C96A884212D90120EE619CE4201D00F093
:102840004DFCE06A2A6906FA00F111432961174933
:1028500000EB800001EB8000211DE5E700208AE409
:1028600070B541F000410160C46800F037FC201DE4
:1028700000F034FC0C4DE06A01262A6906FA00F1EA
:1028800011432961094900EB800001EB8000211D03
:1028900000F000FCE06A2968C96A884202D9012078
:1028A000EE6170BD002070BD30000020BC01002032
:1028B00004ED00E049444C450000000009270008F1
:1028C000F7490A6A0260C9684160704770B50D46F1
:1028D000044600F048FCF249CA682868431C0FD03F
:1028E0002368096A8B4202D0616891420AD9616803
:1028F000511A814206D2401A28602046FFF7E0FFB5
:10290000002400E0012400F03AFC204670BDE449B8
:102910000120C8617047E248416919B1006B18B1E4
:10292000002070470120704702207047DC4908688A
:102930000A688069D26A0968C2F105028A61704733
:1029400070B50C46064600F00EFCD54D2868406C6C
:1029500080B92968012081F848005CB10121204636
:10296000FFF722FDCF494FF080500860BFF34F8F33
:10297000BFF36F8F00F003FC00F0F5FB2868446C98
:10298000002034B116B12968486402E02A68611E4B
:102990005164296881F8480000F0F1FB204670BDC1
:1029A0002DE9F0411E4615468846074600F0DBFB40
:1029B000BB4C206890F84800022814D02068416C75
:1029C000B94341642168012081F848005EB10121CA
:1029D0003046FFF7E9FCB3494FF080500860BFF381
:1029E0004F8FBFF36F8F00F0CAFB00F0BCFB15B137
:1029F0002068406C2860206890F8480001280DD0BD
:102A00002068416C21EA0801416401252168002009
:102A100081F8480000F0B3FB28462BE40025F5E7D9
:102A20002DE9F0411F4690460D460446012600F070
:102A30009AFB0FB1606C386094F84800022184F86A
:102A40004810B8F1050F0ED2DFE808F00D03060CB0
:102A50000A00616C294301E0616C491C616402E079
:102A6000022803D06564012802D020E000261EE081
:102A7000201D00F033FB8A4DE06A01212A69814064
:102A800011432961884900EB800001EB8000211D82
:102A900000F000FBE06A2968C96A884207D98149C9
:102AA0004FF080500860BFF34F8FBFF36F8F00F07F
:102AB00066FB3046AAE42DE9F04704464FF00108D2
:102AC000BF20EFF31185DDF8209080F31188BFF36C
:102AD0004F8FBFF36F8F0BB1606C186094F8480094
:102AE000022384F84830052A0ED2DFE802F00D03F5
:102AF000070C0A00626C0A43626405E0616C491CC1
:102B000001E0022803D06164012803D028E04FF0DF
:102B1000000825E0624E306B012780B1624804F165
:102B200018018C3000F0B6FAE06A3168C96A884250
:102B300016D9B9F1000F12D0C9F8007010E0201DAD
:102B400000F0CCFAE06A326907FA00F11143316112
:102B5000554900EB800001EB8000211DE2E7F761A1
:102B600085F3118840461DE42DE9F041044688466E
:102B7000BF20EFF3118780F31188BFF34F8FBFF3AE
:102B80006F8F94F84810022084F84800606C401C55
:102B90006064012925D1424D286B012680B142484D
:102BA00004F118018C3000F075FAE06A2968C96AEE
:102BB000884216D9B8F1000F12D0C8F8006010E0B2
:102BC000201D00F08BFAE06A2A6906FA00F1114331
:102BD0002961354900EB800001EB8000211DE2E70F
:102BE000EE6187F3118811E410B558B1044600F086
:102BF000BAFA94F84800022807D0002400F0BFFA7F
:102C0000204651E426480468F1E7002084F8480093
:102C10000124F3E72DE9F0479A46DDE9096481468E
:102C20006FF00303206B03EB82021044089D20F039
:102C30000707002023180A5C83F834200A5C12B1CD
:102C4000401C1028F6D34FF0000884F84380052D6F
:102C500000D30425201DE56200F019FA04F11800E4
:102C600000F015FA2461C5F105006462A061C4F8A2
:102C7000448084F8488052464946384600F048FA75
:102C80002060002E00D034606DE70548416B096874
:102C900061B1416BC968C9684968816270470000C9
:102CA0003000002004ED00E0BC0100204FF0FF31B7
:102CB000F3E710B50446006B00F0F4FA2046BDE8D7
:102CC000104000F0EFBA1A4B426900219A4206D137
:102CD000806AA3F12802904201D000B90121084680
:102CE000DCE770B5124E134D143E1CE0FFF78FFB6E
:102CF000306820B10024FFF704FBA4B901E00124EF
:102D0000F9E700F030FAF068C468201D00F0E6F939
:102D1000A868401EA8606868401E686000F02FFA2E
:102D20002046FFF7C6FF68680028DFD170BD0000AD
:102D3000700200203000002070B500244160C84DB2
:102D40000061914206D8D11A8269914206D2011DD2
:102D5000286907E09A4203D2994201D3012403E093
:102D6000011DE86800F0A2F9204670BDFEB5BC4D1B
:102D70001F4603462C680020089E002C0ED08DE8CC
:102D80000E0006290DDAFFF7C6FD02284FF00003FA
:102D900005D0002269462868FEF783FFFEBD324653
:102DA000F8E700233A4669462046FEF7F7FFFEBDE6
:102DB000AB4CE068016839B1002139B1002000F066
:102DC000C6F800F07BF8F4E70121F6E7C068006878
:102DD000F5E710B500F0C7F9A14C206880B9A1480B
:102DE00000F04AF99F48143000F046F99D48E06031
:102DF0001430206100220C210A20FEF7CBFE206057
:102E0000BDE8104000F0BBB91CB50024FFF7E1FF9E
:102E10009348006858B192490220091DCDE900018C
:102E20000202002390A19248FFF7A7F9044620462A
:102E30001CBD2DE9F04706461F461546884628204A
:102E4000DDF8209000F0E4F904000BD0FFF7C1FF9B
:102E500004F11C01C4F81880266081E8A002201D3E
:102E600000F015F92046BDE8F0877D4840687047BE
:102E700080697047406870470068704710B5044625
:102E800000F071F9606908B1012400E0002400F04D
:102E900076F9204610BD10B5044600F064F9246AA6
:102EA00000F06DF9204610BD70B50D46044600F0E7
:102EB0005AF92562BDE8704000F061B930B585B0BF
:102EC000674D3AE00198002837DB039C606910B138
:102ED000201D00F003F904A800F086F802460198CE
:102EE0000A282AD2DFE800F0050505291E26050577
:102EF000291E0298A169034601442046FFF71CFFE2
:102F0000D8B1616A20468847E069012815D10020C0
:102F100000900298A1690023421819462046FFF745
:102F200025FF0AE00298A061811813462046FFF7AA
:102F300003FF02E0204600F0B5F900231A4601A97C
:102F40002868FEF79BFF0028BCD105B030BD2DE9F5
:102F5000FC410E460546FFF75AFA01A800F044F876
:102F60000446019818B1FFF7CCF9BDE8FC813C4F4D
:102F7000AEB138690068A0B30026291B3246386814
:102F8000FFF76BF8FFF7BDF90028EED139494FF094
:102F900080500860BFF34F8FBFF36F8FE5E7A54206
:102FA000EBD8FFF7AEF9F8682646C068C468201D64
:102FB00000F094F8E06901280FD1A0692B4641196F
:102FC00032462046FFF7B8FE38B1002003460146DE
:102FD00000902A462046FFF7C9FE616A20468847CE
:102FE000C3E7FFE70126C8E770B50546FFF7CCFB4E
:102FF0001B4E0446B068844203D200F007F801205B
:1030000000E0002028602046B46070BDF8B5144E82
:103010001EE0C068C4680568201D00F05FF8616AA2
:1030200020468847E069012812D1A0692844A842B7
:1030300006D924616060211DF06800F037F807E0D0
:1030400000200346014600902A462046FFF78EFEE8
:10305000F06801680029DCD13169C6E90310F8BDC8
:103060006C00002084020020546D722053766300AF
:10307000B12D000804ED00E000F108014FF0FF322F
:10308000C0E90112C16001610021016070470021A7
:103090000161704742684A6093688B609368596029
:1030A000916008610168491C0160704730B50C6887
:1030B000621C02D000F1080202E0026904E01A4634
:1030C00053681D68A542FAD953684B6099608A60BD
:1030D000516008610168491C016030BDD0E90132CE
:1030E00001699A60D0E901235A604A68824201D19D
:1030F00082684A60002202610868401E08607047CA
:10310000BF2080F31188BFF34F8FBFF36F8FFEE7AF
:1031100010B5031F4FF080741C601B1F21F00101CC
:103120001960191F244B0B60143940380A6010BD18
:103130004FF0E0202149416107210161704720489B
:1031400010B5016841F47F010160016841F07F41E1
:103150000160FFF7EDFF1B4900200860FDF77CF8D8
:10316000002010BD7047BF2080F31188BFF34F8F40
:10317000BFF36F8F13480168491C01607047114904
:103180000868401E086001D180F31188704710B5AF
:10319000BF2080F31188BFF34F8FBFF36F8FFFF70E
:1031A0005CF820B106494FF080501C3908600020BF
:1031B00080F3118810BD0000013100083F190100A3
:1031C00020ED00E08000002030B55A4900E01146B3
:1031D0000A688242FBD34B685C18844203D1406882
:1031E00018444860084643681C18944209D1514C61
:1031F000103C2468A24209D052681A4442600A680E
:1032000012680260814200D0086030BD0460F9E7B6
:103210002DE9F04105460026FFF7F9F8454F103F2C
:10322000386808B900F065F8F868054235D1A5B3EB
:103230000835680704D005F00700C0F10800054410
:103240005DB37868854228D83A490846046801E0A9
:10325000214604466068A84202D220680028F7D1BF
:103260003868844219D00E682068086060680836A3
:10327000411B102904D9601941606560FFF7A4FF64
:1032800061687868401A7860BA68904200D2B86085
:10329000F86801430020C4E90001FFF732F8304626
:1032A000BDE8F08170B5002819D0224DA0F10804C6
:1032B000103D6068E968084211D02268002A0ED1EA
:1032C00088436060FFF7A3F8606869680844686035
:1032D0002046FFF779FFBDE87040FFF712B870BDD8
:1032E000144810384068704712481038806870479A
:1032F000704711484FF46051420706D0C01D0E4977
:1033000020F00700411AC1F560510A4A0023014428
:10331000C2E900030839103A21F0070111604B603F
:103320000B600B1AC0E9001393604FF0004053602C
:10333000D060704794000020AC0200201CB50C4601
:10334000064B7B4469460090204600F008F904468D
:103350000020694600F016F920461CBD3F0200001F
:10336000032A40F2308010F0030C00F0158011F8B1
:10337000013BBCF1020F624498BF11F801CB00F889
:10338000013B38BF11F8013BA2F1040298BF00F8DD
:1033900001CB38BF00F8013B11F0030300F0DA82E3
:1033A000083AC0F0088051F8043B083A51F804CBC1
:1033B000A0E80810F5E7121D5CBF51F8043B40F887
:1033C000043BAFF30080D20724BF11F8013B11F892
:1033D00001CB48BF11F8012B24BF00F8013B00F8D6
:1033E00001CB48BF00F8012B70477047704770470A
:1033F00070B5044685690068C10601D5302600E035
:103400002026C00707D070BDD4E90121304690477F
:10341000206A401C20626D1EF6D570BD70B5044652
:1034200085690078C00707D170BDD4E9012120204B
:103430009047206A401C20626D1EF6D570BD096859
:103440004A0501D540B27047C905FCD500B27047A6
:1034500009684A0501D5C0B27047C905FCD580B2DC
:10346000704770B50C460546012A05D028788006BD
:1034700000D5EA69002302E0012305E05B1C9342CA
:1034800002D2E05C0028F9D1A869E618C01AA86148
:10349000286A184428622846FFF7AAFF04E0D5E905
:1034A000012114F8010B9047B442F8D32846FFF7E6
:1034B000B5FF70BD2DE9F04106460024106875295E
:1034C000314616A510D0FFF7BAFF002802DA4042B5
:1034D00013A507E031688A0701D512A502E0490764
:1034E00004D511A5012401E0FFF7B2FF00210A2253
:1034F00006F1240709E0B0FBF2FCB0FBF2F302FB9B
:103500001C00303078541846491C0028F3D123465B
:103510002A463046BDE8F04100F093BA00000000B2
:103520002D0000002B000000200000001168026840
:10353000006A530501D508700AE0D30501D508805B
:1035400006E0130603D5C217C1E9000200E00860D7
:103550000120704701694A1C02610878704700B574
:103560008FB0CDE901310021059105497944CDE9BC
:1035700003101146684600F029F90FB000BD0000A5
:10358000E5FFFFFF0A6802F8010B0A6070470000C0
:103590002DE9FF5F15468A460446DFF8AC80F84403
:1035A0000027D8E900103E46CDE9001010E03AF8B7
:1035B00016106A4602A800F055FE411C07D021787B
:1035C000890603D5E269391891420DD80744761C63
:1035D0002078800602D5E069B84205DDAE42E6DB20
:1035E0003AF816000028E2D1A069C01BA06120466D
:1035F000FFF7FEFED8E90010CDE90010002017E02B
:103600003AF818106A4602A800F02CFEB0F1FF3F0D
:1036100081460BD000250DF1080B05E0D4E901210E
:103620001BF8050090476D1C4D45F7D308F10100CC
:10363000B0428046E4DB206A384420622046FFF72F
:10364000EDFEBDE8FF9F0000761700002DE9F04178
:103650008046D21D22F007020025D2E90002F5299A
:1036600015A614D0011E72F1000106DA0023D0EB7A
:10367000030063EB020211A608E0D8F800108B07E4
:1036800001D50FA602E0490701D50EA60125114676
:10369000002408F1240704E000F08EF930323A5596
:1036A000641C50EA0102F7D12B46324621464046BF
:1036B000BDE8F04100F0C5B9000000002D00000099
:1036C0002B0000002000000030B4002100F1240491
:1036D00008E002F00705D208303542EA4372DB0801
:1036E0006554491C52EA0305F3D10468002310A273
:1036F000250707D5A40600D421B1C46901230DA272
:10370000641EC46130BC00F09CB910B5044621466B
:103710001068FFF79DFE02462046BDE810400023DA
:10372000D2E7D21D22F00701D1E90023CCE7000047
:103730000000000030000000F0B40D4601880905CB
:1037400002D5214C7C4402E01F4C7C440E34002105
:1037500000F1240608E002F00F071209E75D42EAD3
:1037600003721B097754491C52EA0307F3D102780C
:103770000023120704D5702D06D009B1022311349D
:103780002246F0BC00F05DB901231034F8E770B5B3
:1037900004460D4621461068FFF75AFE02462946A8
:1037A0002046BDE870400023C6E7D21D22F0070383
:1037B000D3E90023C0E70368126843F020030360E5
:1037C0000823C3610023B7E7D81500002DE9F05F97
:1037D000894604464FF0000ADFF874B1FB44C0F894
:1037E00020A02046E1688847002874D0252806D00C
:1037F000D4E901219047206A401C2062F1E70026AD
:103800005F462046E16888472028054607DB312DC2
:1038100005D2781910F8200C08B10643F1E7B0077B
:1038200001D526F00406C4F81CA00027C4F818A08F
:103830002A2D09D0284601F038FA38B304EB87085E
:10384000303DC8F8185019E059F8041B204604EB25
:1038500087029161E1688847012F054618D1E06928
:10386000002820DA26F020061DE0D8F8180000EB2A
:10387000800005EB40003038C8F818002046E168A9
:103880008847054601F011FA0028EED1012F0AD031
:103890002E2D08D12046E16888477F1C0546022F5F
:1038A00046F02006C4DBA069002803DA404246F057
:1038B0000106A061F00701D026F010066C2D0BD098
:1038C000682D09D04C2D39D06A2D35D0742D35D0C6
:1038D0007A2D33D016E038E0E1682F46204688473D
:1038E000B842054609D16C2F26D04FF48060E168BC
:1038F000064320468847054604E06C2F1AD04FF453
:10390000807006430DB3A5F14100192802D8203577
:1039100046F400664A462946204626604E46FCF795
:103920001FFC80B101280BD0F61D26F0070000F126
:10393000080956E74020E4E78020D8E70020D6E7D2
:1039400006F104094DE7284652E7206ABDE8F09FDA
:103950006815000010B5203AC0F00B80B1E818508F
:10396000203AA0E81850B1E81850A0E81850BFF469
:10397000F5AF5FEA027C24BFB1E81850A0E8185008
:1039800044BF18C918C0BDE810405FEA827C24BF5C
:1039900051F8043B40F8043B08BF7047D20728BFEA
:1039A00031F8023B48BF11F8012B28BF20F8023B39
:1039B00048BF00F8012B704730B5B0F10A024FEA5A
:1039C000900E71F100034EEA817EB0EB0E0061EBC8
:1039D00091014FEA101E4EEA017E10EB0E0041EB02
:1039E00011114FEA102E4EEA016E10EB0E0041EB62
:1039F00011214FEA104E4EEA014E10EB0E0041EB42
:103A00001141401841F100014FEAD00040EA4170F5
:103A10004FEAD10110EB80054FEA810444EA90742B
:103A200044EB01046D1944EB0404521BA3414FF015
:103A3000000348BF0A3200D530BD401C41F10001EF
:103A400030BD2DE9F0470D4699469246044600F1F7
:103A500024080168880604D5E06921F0100121607E
:103A600000E00120A84201DD471B00E00027A1691A
:103A70007A1902EB0900081AA0612078C00602D466
:103A80002046FFF7B5FC002608E0D4E901211AF82A
:103A900006009047206A401C761C20624E45F4DBED
:103AA0002078C0060AD52046FFF7A2FC06E0D4E93C
:103AB000012130209047206A401C2062381EA7F167
:103AC0000107F4DC07E0D4E9012118F8050090476C
:103AD000206A401C2062281EA5F10105F3DC204667
:103AE000FFF79CFC2078000602D50220BDE8F08795
:103AF0000120FBE770472DE9FF4F0C461E464FF0B3
:103B0000FF378BB0D2E90001DDF860800A908A4669
:103B1000C1F30A5505B93D46002108464FF00000A3
:103B2000BAF1000F00F4400005DA00EB80004FF41A
:103B3000400101EA50004FEA9059B9F1010F00DD50
:103B4000B9460A9850EA4A000ED044F61050A5F241
:103B5000FF3545432F14B8F1000F1ED07542291EC2
:103B60001EDDC9F100021CE0B8F1010F4FF00000AA
:103B700001D0302103E0F24305E02154401CB04263
:103B8000FBDB30460022002121540B99C1F808804C
:103B9000C1E900200FB0BDE8F08FBD1B6D1CDEE752
:103BA0004A4600DA694206A800F0F2FB06AB93E849
:103BB000070003AB83E8070050460A9900F0A6FC13
:103BC0008DE80700A0F500501F3800900398002DE5
:103BD00009DD42F21F014A46084403A903906846E2
:103BE00000F005FF08E0A0F500504A461F3803A981
:103BF0000390684600F00FFF8DE807000004000CFA
:103C000003D04FF0FF30410800E01046B8F1000F3C
:103C100003D00022009215461EE0751E05D4FFF762
:103C2000CBFE303262556D1EF9D5B34601220843F2
:103C300002D000227F1C04E02078302801D100222D
:103C40007F1E002A099786D01DE0112D07DAFFF7A5
:103C5000B3FE303262556D1C50EA0102F5D10843C3
:103C600002D00098C8B10EE00021681E05E0235C78
:103C7000625C63542254401E491C8142F7DBAB4610
:103C8000A81B401E0990002004F80B000B98099A0D
:103C9000C0F80880C0E9002B7CE711264FF000082F
:103CA00059E72DE9F04F88460446D21D22F007015E
:103CB00091B0D1E90001CDE90A0100F0E2FF02462E
:103CC0000B98C00F01D02D2007E02068810701D597
:103CD0002B2002E0202101EAC000032A099001D034
:103CE000072A05DB03464146204600F011FB0BE1A5
:103CF0002078800601D5E06900E00620B8F1650F64
:103D0000814606D0B8F1660F18D0B8F1670F70D1B0
:103D100031E00020B9F1110F009001DB112301E027
:103D200009F101030AAA01A90CA8FFF7E4FEDDE9E5
:103D30000C70002609F10105834647E001204B463F
:103D400000904FF000470AAA01A90CA8FFF7D3FE84
:103D5000DDE90DB00C995D46002610B909F10100AE
:103D60000D18B9EB050003D4C0F1FF3609F10105C8
:103D7000A5EB09002BE0B9F1010F01DA4FF00109C1
:103D80000020B9F1110F0090484601DD112300E039
:103D900003460AAA01A90CA8FFF7ADFEDDE90C70E5
:103DA0004D4600268346207800070AD4AB4500DA4A
:103DB0005D4601A8012D04DD411911F8011C3029CF
:103DC00007D04F4502DA17F1040F04DA01208246CA
:103DD0000FE06D1EEEE7002F02DCED1B3E4403E01A
:103DE000781CA84200DD7D1CB81B00F1010A4FF0D1
:103DF00000472078000703D4AA4501DB4FF0FF3AC3
:103E00000021B7F1004F0DF143088DF8431024D085
:103E100002202B23002F01DA7F422D230A21021ECC
:103E2000A0F1010000DC5FB197FBF1FC97FBF1F220
:103E300001FB1C7C17460CF1300C08F801CDEEE7B5
:103E4000A8F1010003702188090501D5452100E092
:103E50006521A0F1010800F8011C09980FA9A1EB48
:103E60000807FF1D00B10120411901EBEA70A169AB
:103E70003844081A401EA0612078C00602D42046AB
:103E8000FFF7B6FA099828B1D4E901219047206AD2
:103E9000401C20622078C00622D52046FFF7A8FAF1
:103EA0001EE0002E04DBB34502DD01A8805D00E0CA
:103EB0003020D4E901219047206A401C2062761C02
:103EC000AAF101005FEA000A0AD100F01DFAC068F9
:103ED0000168405CD4E901219047206A401C2062BF
:103EE000281EA5F10105DCDC07E0D4E9012118F862
:103EF000010B9047206A401C2062381EA7F1010781
:103F0000F3DC2046FFF78AFA032011B043E60000F5
:103F10002DE9F04F04460D46D21D22F0070089B06E
:103F2000D0E900974846394600F0ABFE0246F80F4C
:103F300001D02D2307E02068810701D52B2302E063
:103F4000202101EAC0038DF820300BB1012000E0F0
:103F50000020032A824601D0072A04DB2946204696
:103F600000F0D6F93FE12078800601D40D2500E06D
:103F7000E569C7F30A560D2D49DA00214FEA175BB0
:103F800008464FF00000002F00F4400007DA00EB75
:103F900080004FF4400100EBD07001EA6000811511
:103FA000012901DD4FF0FF3100224FEA850CBCF101
:103FB000180F06D31346ACF118004FF08052C240E0
:103FC00003E04FF4801323FA0CF30CF10C0CBCF15A
:103FD000200F04D3ACF1200C09FA0CF001E007FA31
:103FE0000CF000294FF0004801DD18B90FE00ED1A8
:103FF00040450CD319EB02095F4121B9404502D17C
:104000009F4329EA0209BBEB175F00D0761C20888A
:10401000000502D57B48784402E07A487844193894
:1040200008AA302302F80A30037C0AF10101002EAD
:104030000AF1020A53546A4602DC4FF0300101E0F3
:104040004FF031014FF001088DF8001002D0A6F2B8
:10405000FF3603E059EA470100D06B4E002D02DC29
:104060002178090704D54FF002082E218DF80110A0
:10407000C44600210BE0C7F303433F01C35C491C66
:104080006D1E02F80830052908F1010801DA002D3B
:10409000F1DC00210CE000EB1973491C1B786D1E4C
:1040A000082902F808304FEA091908F1010801DA75
:1040B000002DF0DC21688B0602D516E0A8F101087E
:1040C000E04505DD02EB080313F8013C302BF5D089
:1040D000B8F1000F09DD02EB080313F8013C2E2BA9
:1040E00003D1090701D4A8F10108002D05DD3E2107
:1040F00002F808106D1E08F10108407C002E02F83D
:10410000080008F1010804DA2D20764202F80800C0
:1041100002E02B2002F808000A214FF47A70864250
:1041200008F101080BDB96FBF0F3303302F808309E
:1041300096FBF0F308F1010800FB136601E0642E22
:104140000CDB642096FBF0F3303302F8083096FB6A
:10415000F0F308F1010800FB136601E00A2E06DB0C
:1041600096FBF1F0303002F8080008F1010896FBE8
:10417000F1F001FB1060303002F80800A16908F18D
:10418000010808EB050202EB0A00081AA06120787A
:10419000C00602D42046FFF72BF9216A08AE01EBD6
:1041A0000A00206204E0D4E9012116F8010B9047CF
:1041B000BAF1010AF7D22078C00602D52046FFF7EF
:1041C00017F96E4609E016F8010B3E280FD0D4E926
:1041D00001219047206A401C2062B8F10108F2D208
:1041E0002046FFF71BF909B00320BDE8F08F206AD5
:1041F0002844206203E0D4E90121302090476D1E5D
:10420000EBD3F8E7520D000002FCFFFF10B5436945
:1042100013B1AFF3008001E0FFF723F9012010BDD7
:10422000127800F124010A7000224A700122EDE7A1
:1042300011684FF0FF32E9E710B5436913B1AFF3EE
:10424000008001E0FFF7A4F9012010BD128800F101
:10425000240182840022C2840122EDE711684FF01C
:10426000FF32E9E770B516460C46054600F044F803
:10427000036893F80101012806D0FF2C0FD8185DC0
:1042800068B101202C7070BDD3F807013246214679
:1042900003F2071303442846BDE8704018474FF067
:1042A000FF3070BD00487047AC3A00207546FFF7FC
:1042B000F9FFAE4605006946534620F007008546E3
:1042C00018B020B5FCF772F8BDE820404FF00006AA
:1042D0004FF000074FF000084FF0000B21F00701EE
:1042E000AC46ACE8C009ACE8C009ACE8C009ACE831
:1042F000C0098D467047000010B500F005F8001D9C
:1043000010BD00BFE109000000487047CC3A002012
:104310002DE9F0411F46044603260168072A01F4EF
:10432000006004DB08B116A505E016A503E008B19E
:1043300015A500E015A521F010002060A069C01EA1
:10434000A0610FB1401EA0612046FFF751F84FB1A8
:10435000D4E9012138469047206A401C2062C01CE5
:10436000206206E0206AFAE7D4E9012115F8010B82
:104370009047761EF8D22046FFF750F8BDE8F0814E
:104380004E414E006E616E00494E4600696E6600F9
:104390002DE9F047814616468AB0334878440DC867
:1043A0008DE80D0030487844801C03AC0DC884E8CB
:1043B0000D0041F69B300844372190FBF1F290FB51
:1043C000F1F5A5F1800501FB12041B3C02D5644206
:1043D000012000E00020DFF890A080460027FA448A
:1043E000AAF1BE0A0DE0E00709D03246684607EBA5
:1043F00047010AEB810100F00EFB8DE80700641015
:104400007F1C002CEFD1184F7F44AC3F18E0E80729
:1044100014D007EB04100DF1180A90E80E008AE89A
:104420000E00C068F04201D198190890324606A9E2
:1044300003A800F0F0FA03AB83E807006D10641CDA
:10444000002DE4D132466946B8F1000F03A802D02E
:1044500000F0CDFA01E000F0DEFAC9E90001C9F888
:1044600008200AB0BDE8F0875C0A000010B50446D9
:10447000AFF300802046BDE81040FBF7D4BE704784
:104480004FF0013C50F8042B51F8043B9A4221D1E3
:10449000A2EB0C03934313EACC1317D150F8042B6F
:1044A00051F8043B9A4215D1A2EB0C03934313EA53
:1044B000CC130BD150F8042B51F8043B9A4209D18C
:1044C000A2EB0C03934313EACC13DBD04FF00000B4
:1044D000704700BFD01A01BAB1FA81F101F018019A
:1044E00022FA01F0CB40C1F12001DBB2C0B2C01A08
:1044F0002CFA01F3D11A914311EAC311E6D17047A6
:1045000001491820ABBEFEE7260002005FEA400C1E
:1045100008BF91F0000F4FEA8C234FEAC12243EA13
:1045200051514FEA1C5018BF00F5F0404FEA3000DF
:1045300018BF41F000415FEA6C5C00F02980BCF1DB
:10454000FF3F08BF40F080407047130C06BF1204C5
:104550004FF0100C4FF0000C130E04BF12020CF1C0
:10456000080C130F04BF12010CF1040C930F04BFCD
:1045700092000CF1020CD30F04BF52000CF1010C9D
:1045800011464FF00002A0F11F00A0EB0C00704795
:1045900011F0004F08BF704731F000413FF4D5AF34
:1045A0000B0C06BF09044FF0100C4FF0000C0B0E63
:1045B00004BF09020CF1080C0B0F04BF09010CF138
:1045C000040C8B0F04BF89000CF1020CCB0F04BF4D
:1045D00049000CF1010CCCF12003A0EB0C0022FAF5
:1045E00003F302FA0CF241EA030100F10100704703
:1045F00020F07F4C80EA030023F07F47ACEB0703F9
:1046000003F57C5300F0004003F1FF032DE98049DE
:104610004FEA154B09B44FEA144325EA0B4E24EA3E
:1046200003480FF2042606EB132749083E785FEA99
:10463000320203FB0667C7F5000707FB06F64FEAE1
:1046400054374FEAD64606F1020607FB066CCCF15A
:10465000005C4FEA1C472CEA074C07FB06F40CFBF6
:1046600006F504EB15464FEA961634BF00204FF0CE
:1046700000404FEAD13706FB07FC4FEA1C4C0CFB0D
:104680000BF7D21B03FB0CF761EB07010CFB0EF7DA
:10469000B0EB074072EB17420CFB08F734BFA2EBFC
:1046A0000742B2EB074261EB17414FEA0C444FEA75
:1046B000910706FB07FC4FEA1C4C0CFB0BF7B0EB19
:1046C000C74072EB573203FB0CF734BFA2EBC74273
:1046D000B2EBC74261EB57310CFB0EF7B0EBC700F2
:1046E00072EB57720CFB08F734BFA2EBC702B2EBB8
:1046F000C70261EB5771039F4FEA816141EA921152
:1047000004EBCC044FEAD1374FEA826206FB07FC88
:1047100042EA90124FEA80604FEA1C4C0CFB0BF708
:10472000D21B03FB0CF761EB07010CFB0EF7B0EBA0
:10473000074072EB17420CFB08F734BFA2EB0742AD
:10474000B2EB074261EB17414FEA8C554FEA9107F4
:1047500004EB9C2406FB07FC4FEA1C4C0CFB0BF7FC
:10476000B0EBC74072EB573203FB0CF734BFA2EB40
:10477000C742B2EBC74261EB57310CFB0EF7B0EB0F
:10478000C70072EB57720CFB08F734BFA2EBC702ED
:10479000B2EBC70261EB577115EB4C254FEA816113
:1047A00041EA92114FEA82624FEAD13742EA90120F
:1047B00006FB07FC44F100044FEA80604FEA1C4C02
:1047C0000CFB0BF7D21B03FB0CF761EB07010CFB97
:1047D0000EF7B0EB074072EB17420CFB08F734BF43
:1047E000A2EB0742B2EB074261EB174115EB1C1538
:1047F0004FEA813141EA92414FEA823242EA9042E5
:104800004FEA80304FEA0C7644F1000448EA034353
:104810004EEA0B484FF0000EB2EB080C71EB0307A9
:1048200024BF624639464EEB0E0E4FF0000B0018C7
:10483000524149414BEB0B0BB2EB080C71EB0307F8
:104840007BF1000B24BF624639464EEB0E0E4FF053
:10485000000B0018524149414BEB0B0BB2EB080C1B
:1048600071EB03077BF1000B24BF624639464EEB28
:104870000E0E51EA020718BF46F0010616EB0E763F
:1048800055F1000254F1000103D5BDE88901BDE8EE
:104890000088BDE88901BDE80048B619524141EBE6
:1048A0000101A3F10103704780807F7E7D7C7B7ACC
:1048B0007978777676757473727171706F6E6E6DCC
:1048C0006C6C6B6A6A696868676666656464636372
:1048D00062616160605F5F5E5E5D5D5C5C5B5B5AF8
:1048E0005A59595858575756565555555454535365
:1048F00052525251515050504F4F4F4E4E4D4D4DC0
:104900004C4C4C4B4B4B4A4A4A494949484848470A
:104910004747474646464545454444444443434348
:104920004342424242414141002B26D4770021D0EC
:104930001CB54FEA370703B44FF010004FF01001D9
:104940004FF000000FBCBDE810400BF1010BBBF1B4
:10495000010F08BF5FEA170722BF12F1010211F130
:1049600001014FF0004143F1000300F0004043EA31
:1049700000007047F9D35708DAE746EA064613F114
:10498000400F4FEA16461FDD13F1200FDFBF16431D
:104990000A46002120335B42C8D0C3F1200746EA13
:1049A000064602FA07F74FEA164646EA0706C3F13B
:1049B000200722FA03F201FA07F721FA03F14FF078
:1049C000000342EA0702B1E746EA020646EA064663
:1049D0004FEA164646EA0106BCBF46EA0646360CD2
:1049E0004FF000034FF000024FF000019EE72DE969
:1049F000C048934630B491E8380007C831EA400C0B
:104A000048BF34EA430C03D5FFF7F2FDFFF78CFFF4
:104A1000F0BCBDE800882DE9C048934630B491E869
:104A2000380007C810F0804F08BF13F0804F03D143
:104A300000F005F8FFF778FFF0BCBDE8008820F033
:104A40007F4780EA030023F07F4C07EB0C03A3F5BC
:104A50007C5300F00040A3F1FE0392F0000F00F041
:104A6000B38095F0000F00F077802DE901494FEAFF
:104A700011404FEA144621EA004800FB06FC24EAF4
:104A8000064708FB06F607FB08F800FB07F718EBDC
:104A900006484CEB164C4FEA124B18EB07484FEA0E
:104AA00015464CEB174022EA0B4E0BFB06FC25EAA1
:104AB00006470EFB06F607FB0EFE0BFB07F71EEB89
:104AC000064E4CEB164C4FF000061EEB074E4CEB1F
:104AD000174B18EB0B0840F1000018EB0E0B58EBCE
:104AE000000840F100008F1A4FF000013CBFC9439D
:104AF000661B14BFB5EB040C00213CBFC943F61B79
:104B00004FEA17444EEA8E0E27EA04454FEA1C4747
:104B100004FB07622CEA074C05FB07F70CFB05F6C4
:104B200004FB0CFC16EB074642EB174216EB0C4657
:104B300042EB1C421BEB060658EB0202414146EADF
:104B40009E0601D5BDE80189B619524141EB01012C
:104B5000A3F10103BDE801894FEA14454FEA11476B
:104B600024EA054621EA074C05FB07F406FB07F794
:104B70000CFB06F105FB0CFC11EB074144EB174461
:104B80004FEA124711EB0C4144EB1C4422EA074C5C
:104B900005FB07F206FB07F70CFB06F605FB0CFC12
:104BA00016EB074642EB174216EB0C4642EB1C4550
:104BB0006A1854F1000148BF7047B619524141EBE1
:104BC0000101A3F10103704795F0000F37D04FEAC0
:104BD00011424FEA144721EA024624EA074C02FB3D
:104BE00007F106FB07F70CFB06F402FB0CFC14EBC9
:104BF000074441EB17414FEA154714EB0C4441EBD6
:104C00001C4125EA074C02FB07F506FB07F70CFBE6
:104C100006F602FB0CFC16EB074645EB174516EBB8
:104C20000C4645EB1C42121951F1000148BF704778
:104C3000B619524141EB0101A3F1010370474FEA5C
:104C400014454FEA114724EA054621EA074C05FBC3
:104C500007F106FB07F70CFB06F24FF0000605FB19
:104C60000CFC12EB074241EB174112EB0C4251EBEB
:104C70001C4148BF7047921841EB0101A3F10103A9
:104C80007047490050EAC12018BF04204A0D18BFE0
:104C900040F0010040F2FF72B2EB515F08BF40F0FC
:104CA0000200012808BF0520704730380A2801D2C9
:104CB000012070470020704710B500290AD00878FD
:104CC000002807D005487844FFF7DAFB002801D018
:104CD000002010BD0248784410BD00006E010000A5
:104CE0006601000010B500290AD00878002807D016
:104CF00005487844FFF7C4FB002801D0002010BD10
:104D00000248784410BD00005E010000560100001A
:104D1000FEF7C7BFFFF7FCB800000000000000006E
:104D200030313233343536373839414243444546E1
:104D300040305800303132333435363738396162DB
:104D400063646566403078000400000800000000DD
:104D500000000002000100001030313233343536DB
:104D60003738396162636465667870003031323398
:104D700034353637383941424344454658500000AF
:104D800002400000000000A00000000005400000FC
:104D9000000000C8000000000C4000000000409C23
:104DA00000000000194000000020BCBE0000000010
:104DB00034400000BFC91B8E00000004B540000055
:104DC000504BCFD06607E2CF010000006C410000DD
:104DD0003E8251AADFEEA73401000000D942000054
:104DE000DCB5A0E23A301F97FFFFFFFFB44500009B
:104DF000FD25A0C8E9A3C14FFFFFFFFFFF3F000053
:104E00000000008000000000FF3F00000000008064
:104E100000000000604F0008000000209C0000001F
:104E200028010008FC4F00089C000020744000008E
:104E3000440100081C00000043000000F8FFFFFFD1
:104E40000C0000000E0000000F0000002E0000000B
:104E50001001000043000000F8FFFFFF0040404049
:104E6000404040404040414141414140404040403D
:104E700040404040404040404040404040050202E9
:104E800002020202020202020202020202202020A8
:104E90002020202020202002020202020202909004
:104EA0009090909010101010101010101010101002
:104EB0001010101010101010020202020202888856
:104EC0008888888808080808080808080808080862
:104ED000080808080808080802020202400000004A
:104EE00000000000000000000000000000000000C2
:104EF00000000000000000000000000000000000B2
:104F000000000000000000000000000000000000A1
:104F10000000000000000000000000000000000091
:104F20000000000000000000000000000000000081
:104F30000000000000000000000000000000000071
:104F40000000000000000000000000000000000061
:104F50000000000000000000000000000000000051
:104F600000A24A0400000000000000000102030447
:104F70000607080900000000440002400204060879
:104F800000000000010203040102030406070809EF
:104F90000000000000000000000000000000000011
:104FA0000000000000000000000000000000000001
:104FB00000000000000000000000000000000000F1
:104FC00000000000000000000000000000000000E1
:104FD00000000000000000000000000000000000D1
:104FE000AAAAAAAA00000000000000000000000019
:0C4FF000000000000000000000000000B5
:04000005080000ED02
:00000001FF
